{
  "contractName": "Forceth",
  "abi": [
    {
      "constant": false,
      "inputs": [
        {
          "name": "destination",
          "type": "address"
        }
      ],
      "name": "sendTo",
      "outputs": [],
      "payable": true,
      "stateMutability": "payable",
      "type": "function",
      "signature": "0xe6d25245"
    }
  ],
  "bytecode": "0x608060405234801561001057600080fd5b5061016d806100206000396000f3fe60806040526004361061003b576000357c010000000000000000000000000000000000000000000000000000000090048063e6d2524514610040575b600080fd5b6100826004803603602081101561005657600080fd5b81019080803573ffffffffffffffffffffffffffffffffffffffff169060200190929190505050610084565b005b348161008e6100e6565b808273ffffffffffffffffffffffffffffffffffffffff1673ffffffffffffffffffffffffffffffffffffffff1681526020019150506040518091039082f0801580156100df573d6000803e3d6000fd5b5090505050565b604051604c806100f68339019056fe6080604052604051602080604c83398101806040526020811015602157600080fd5b81019080805190602001909291905050508073ffffffffffffffffffffffffffffffffffffffff16fffea165627a7a7230582009e089f5c2d0b8e3e42b1b6942c2ebf36d31a4c88255f1b2b4fd4e55ea13b05a0029",
  "source": "pragma solidity 0.5.1;\r\n\r\n/**\r\n* @title Forceth\r\n* @notice A tool to send ether to a contract irrespective of its default payable function\r\n**/\r\ncontract Forceth {\r\n  function sendTo(address payable destination) public payable {\r\n    (new Depositor).value(msg.value)(destination);\r\n  }\r\n}\r\n\r\ncontract Depositor {\r\n  constructor(address payable destination) public payable {\r\n    selfdestruct(destination);\r\n  }\r\n}",
  "sourcePath": "/mnt/c/Users/wigfi/Documents/projects/github/forceth/contracts/Forceth.sol",
  "compiler": {
    "name": "solc",
    "version": "0.5.1+commit.c8a2cb62.Emscripten.clang"
  },
  "schemaVersion": "3.0.0-beta.2",
  "updatedAt": "2019-04-30T08:24:44.618Z",
  "devdoc": {
    "methods": {},
    "title": "Forceth\r"
  },
  "userdoc": {
    "methods": {},
    "notice": "A tool to send ether to a contract irrespective of its default payable function\r*"
  }
}